{
  "contractName": "ExampleCoin",
  "abi": [
    {
      "inputs": [],
      "payable": false,
      "stateMutability": "nonpayable",
      "type": "constructor"
    },
    {
      "anonymous": false,
      "inputs": [
        {
          "indexed": false,
          "internalType": "address",
          "name": "to",
          "type": "address"
        },
        {
          "indexed": false,
          "internalType": "uint256",
          "name": "amount",
          "type": "uint256"
        }
      ],
      "name": "Minted",
      "type": "event"
    },
    {
      "anonymous": false,
      "inputs": [
        {
          "indexed": false,
          "internalType": "address",
          "name": "from",
          "type": "address"
        },
        {
          "indexed": false,
          "internalType": "address",
          "name": "to",
          "type": "address"
        },
        {
          "indexed": false,
          "internalType": "uint256",
          "name": "amount",
          "type": "uint256"
        }
      ],
      "name": "Sent",
      "type": "event"
    },
    {
      "constant": true,
      "inputs": [
        {
          "internalType": "address",
          "name": "",
          "type": "address"
        }
      ],
      "name": "balances",
      "outputs": [
        {
          "internalType": "uint256",
          "name": "",
          "type": "uint256"
        }
      ],
      "payable": false,
      "stateMutability": "view",
      "type": "function"
    },
    {
      "constant": true,
      "inputs": [],
      "name": "minter",
      "outputs": [
        {
          "internalType": "address",
          "name": "",
          "type": "address"
        }
      ],
      "payable": false,
      "stateMutability": "view",
      "type": "function"
    },
    {
      "constant": false,
      "inputs": [
        {
          "internalType": "address",
          "name": "receiver",
          "type": "address"
        },
        {
          "internalType": "uint256",
          "name": "amount",
          "type": "uint256"
        }
      ],
      "name": "mint",
      "outputs": [
        {
          "internalType": "uint256",
          "name": "",
          "type": "uint256"
        }
      ],
      "payable": false,
      "stateMutability": "nonpayable",
      "type": "function"
    },
    {
      "constant": false,
      "inputs": [
        {
          "internalType": "address",
          "name": "received",
          "type": "address"
        },
        {
          "internalType": "uint256",
          "name": "amount",
          "type": "uint256"
        }
      ],
      "name": "send",
      "outputs": [],
      "payable": false,
      "stateMutability": "nonpayable",
      "type": "function"
    },
    {
      "constant": true,
      "inputs": [
        {
          "internalType": "address",
          "name": "addr",
          "type": "address"
        }
      ],
      "name": "balanceOf",
      "outputs": [
        {
          "internalType": "uint256",
          "name": "",
          "type": "uint256"
        }
      ],
      "payable": false,
      "stateMutability": "view",
      "type": "function"
    },
    {
      "constant": true,
      "inputs": [
        {
          "internalType": "uint24",
          "name": "a",
          "type": "uint24"
        }
      ],
      "name": "x",
      "outputs": [
        {
          "internalType": "int16",
          "name": "",
          "type": "int16"
        }
      ],
      "payable": false,
      "stateMutability": "pure",
      "type": "function"
    },
    {
      "constant": false,
      "inputs": [],
      "name": "payTest",
      "outputs": [],
      "payable": true,
      "stateMutability": "payable",
      "type": "function"
    }
  ],
  "bytecode": "0x608060405234801561001057600080fd5b50336000806101000a81548173ffffffffffffffffffffffffffffffffffffffff021916908373ffffffffffffffffffffffffffffffffffffffff1602179055506107dd806100606000396000f3fe6080604052600436106100705760003560e01c806370a082311161004e57806370a08231146101a0578063762c501a1461020557806397d1e90e1461025f578063d0679d341461026957610070565b8063075461721461007557806327e235e3146100cc57806340c10f1914610131575b600080fd5b34801561008157600080fd5b5061008a6102c4565b604051808273ffffffffffffffffffffffffffffffffffffffff1673ffffffffffffffffffffffffffffffffffffffff16815260200191505060405180910390f35b3480156100d857600080fd5b5061011b600480360360208110156100ef57600080fd5b81019080803573ffffffffffffffffffffffffffffffffffffffff1690602001909291905050506102e9565b6040518082815260200191505060405180910390f35b34801561013d57600080fd5b5061018a6004803603604081101561015457600080fd5b81019080803573ffffffffffffffffffffffffffffffffffffffff16906020019092919080359060200190929190505050610301565b6040518082815260200191505060405180910390f35b3480156101ac57600080fd5b506101ef600480360360208110156101c357600080fd5b81019080803573ffffffffffffffffffffffffffffffffffffffff169060200190929190505050610514565b6040518082815260200191505060405180910390f35b34801561021157600080fd5b506102436004803603602081101561022857600080fd5b81019080803562ffffff16906020019092919050505061055d565b604051808260010b60010b815260200191505060405180910390f35b610267610567565b005b34801561027557600080fd5b506102c26004803603604081101561028c57600080fd5b81019080803573ffffffffffffffffffffffffffffffffffffffff169060200190929190803590602001909291905050506105b6565b005b6000809054906101000a900473ffffffffffffffffffffffffffffffffffffffff1681565b60016020528060005260406000206000915090505481565b60008060009054906101000a900473ffffffffffffffffffffffffffffffffffffffff1673ffffffffffffffffffffffffffffffffffffffff163373ffffffffffffffffffffffffffffffffffffffff16146103c5576040517f08c379a00000000000000000000000000000000000000000000000000000000081526004018080602001828103825260168152602001807f4d696e7465722053686f756c64204265204f776e65720000000000000000000081525060200191505060405180910390fd5b789f4f2726179a224501d762422c946590d910000000000000008210610453576040517f08c379a000000000000000000000000000000000000000000000000000000000815260040180806020018281038252600d8152602001807f546f6f206d7563682066756e640000000000000000000000000000000000000081525060200191505060405180910390fd5b81600160008573ffffffffffffffffffffffffffffffffffffffff1673ffffffffffffffffffffffffffffffffffffffff168152602001908152602001600020600082825401925050819055507f30385c845b448a36257a6a1716e6ad2e1bc2cbe333cde1e69fe849ad6511adfe8383604051808373ffffffffffffffffffffffffffffffffffffffff1673ffffffffffffffffffffffffffffffffffffffff1681526020018281526020019250505060405180910390a181905092915050565b6000600160008373ffffffffffffffffffffffffffffffffffffffff1673ffffffffffffffffffffffffffffffffffffffff168152602001908152602001600020549050919050565b6000809050919050565b34600160003373ffffffffffffffffffffffffffffffffffffffff1673ffffffffffffffffffffffffffffffffffffffff16815260200190815260200160002060008282540192505081905550565b600160003373ffffffffffffffffffffffffffffffffffffffff1673ffffffffffffffffffffffffffffffffffffffff1681526020019081526020016000205481111561066b576040517f08c379a00000000000000000000000000000000000000000000000000000000081526004018080602001828103825260158152602001807f496e73756666696369656e742062616c616e63652e000000000000000000000081525060200191505060405180910390fd5b80600160003373ffffffffffffffffffffffffffffffffffffffff1673ffffffffffffffffffffffffffffffffffffffff1681526020019081526020016000206000828254039250508190555080600160008473ffffffffffffffffffffffffffffffffffffffff1673ffffffffffffffffffffffffffffffffffffffff168152602001908152602001600020600082825401925050819055507f3990db2d31862302a685e8086b5755072a6e2b5b780af1ee81ece35ee3cd3345338383604051808473ffffffffffffffffffffffffffffffffffffffff1673ffffffffffffffffffffffffffffffffffffffff1681526020018373ffffffffffffffffffffffffffffffffffffffff1673ffffffffffffffffffffffffffffffffffffffff168152602001828152602001935050505060405180910390a1505056fea265627a7a7231582095de008d3bbaa6ede0058215bebe93c47acb6244d0bf42ed73d7d13a0a71cf1c64736f6c63430005100032",
  "source": "// SPDX-License-Identifier: MIT\npragma solidity >=0.5.16 <0.9.0;\n\ncontract ExampleCoin {\n  address public minter;\n\n  mapping(address => uint256) public balances;\n\n  event Sent(address from, address to, uint256 amount);\n  event Minted(address to, uint256 amount);\n\n  constructor() public {\n    minter = msg.sender;\n  }\n\n  function mint(address receiver, uint256 amount) public returns (uint256) {\n    require(msg.sender == minter, \"Minter Should Be Owner\");\n    require(amount < 1e60, \"Too much fund\");\n    balances[receiver] += amount;\n    emit Minted(receiver, amount);\n    return amount;\n  }\n\n  function send(address received, uint256 amount) public {\n    require(amount <= balances[msg.sender], \"Insufficient balance.\");\n    balances[msg.sender] -= amount;\n    balances[received] += amount;\n    emit Sent(msg.sender, received, amount);\n  }\n\n  function balanceOf(address addr) public view returns (uint256) {\n    return balances[addr];\n  }\n\n  function x(uint24 a) public pure returns (int16) {\n    return 0;\n  }\n\n  function payTest() public payable {\n    balances[msg.sender] += msg.value;\n  }\n}\n",
  "sourcePath": "/Volumes/Work/Code/Eth/data-processor/contracts/contracts/ExampleCoin.sol",
  "compiler": {
    "name": "solc",
    "version": "0.5.16+commit.9c3226ce.Emscripten.clang"
  },
  "schemaVersion": "3.4.1",
  "updatedAt": "2021-07-18T20:44:01.891Z",
  "networkType": "ethereum",
  "devdoc": {
    "methods": {}
  },
  "userdoc": {
    "methods": {}
  }
}