{
  "contractName": "TestFlashLender",
  "abi": [
    {
      "inputs": [],
      "name": "flashBalance",
      "outputs": [
        {
          "internalType": "uint256",
          "name": "",
          "type": "uint256"
        }
      ],
      "stateMutability": "view",
      "type": "function"
    },
    {
      "inputs": [],
      "name": "flashSender",
      "outputs": [
        {
          "internalType": "address",
          "name": "",
          "type": "address"
        }
      ],
      "stateMutability": "view",
      "type": "function"
    },
    {
      "inputs": [],
      "name": "flashToken",
      "outputs": [
        {
          "internalType": "address",
          "name": "",
          "type": "address"
        }
      ],
      "stateMutability": "view",
      "type": "function"
    },
    {
      "inputs": [],
      "name": "flashValue",
      "outputs": [
        {
          "internalType": "uint256",
          "name": "",
          "type": "uint256"
        }
      ],
      "stateMutability": "view",
      "type": "function"
    },
    {
      "stateMutability": "payable",
      "type": "receive"
    },
    {
      "inputs": [
        {
          "internalType": "address",
          "name": "sender",
          "type": "address"
        },
        {
          "internalType": "address",
          "name": "token",
          "type": "address"
        },
        {
          "internalType": "uint256",
          "name": "value",
          "type": "uint256"
        },
        {
          "internalType": "uint256",
          "name": "",
          "type": "uint256"
        },
        {
          "internalType": "bytes",
          "name": "data",
          "type": "bytes"
        }
      ],
      "name": "onFlashLoan",
      "outputs": [
        {
          "internalType": "bytes32",
          "name": "",
          "type": "bytes32"
        }
      ],
      "stateMutability": "nonpayable",
      "type": "function"
    },
    {
      "inputs": [
        {
          "internalType": "address",
          "name": "lender",
          "type": "address"
        },
        {
          "internalType": "uint256",
          "name": "value",
          "type": "uint256"
        }
      ],
      "name": "flashLoan",
      "outputs": [],
      "stateMutability": "nonpayable",
      "type": "function"
    },
    {
      "inputs": [
        {
          "internalType": "address",
          "name": "lender",
          "type": "address"
        },
        {
          "internalType": "uint256",
          "name": "value",
          "type": "uint256"
        }
      ],
      "name": "flashLoanAndWithdraw",
      "outputs": [],
      "stateMutability": "nonpayable",
      "type": "function"
    },
    {
      "inputs": [
        {
          "internalType": "address",
          "name": "lender",
          "type": "address"
        },
        {
          "internalType": "uint256",
          "name": "value",
          "type": "uint256"
        }
      ],
      "name": "flashLoanAndSteal",
      "outputs": [],
      "stateMutability": "nonpayable",
      "type": "function"
    },
    {
      "inputs": [
        {
          "internalType": "address",
          "name": "lender",
          "type": "address"
        },
        {
          "internalType": "uint256",
          "name": "value",
          "type": "uint256"
        }
      ],
      "name": "flashLoanAndReenter",
      "outputs": [],
      "stateMutability": "nonpayable",
      "type": "function"
    }
  ],
  "bytecode": "0x608060405234801561001057600080fd5b506111db806100206000396000f3fe60806040526004361061008a5760003560e01c806387730b261161005957806387730b261461024b5780639d9e465c1461028c578063a6b14c05146102e7578063d3fd634f14610342578063ebbc8d241461039d57610091565b806323e30c8b14610096578063249ab7611461018457806328500dcd146101af57806377ee08551461020a57610091565b3661009157005b600080fd5b3480156100a257600080fd5b5061016e600480360360a08110156100b957600080fd5b81019080803573ffffffffffffffffffffffffffffffffffffffff169060200190929190803573ffffffffffffffffffffffffffffffffffffffff16906020019092919080359060200190929190803590602001909291908035906020019064010000000081111561012a57600080fd5b82018360208201111561013c57600080fd5b8035906020019184600183028401116401000000008311171561015e57600080fd5b90919293919293905050506103c8565b6040518082815260200191505060405180910390f35b34801561019057600080fd5b50610199610993565b6040518082815260200191505060405180910390f35b3480156101bb57600080fd5b50610208600480360360408110156101d257600080fd5b81019080803573ffffffffffffffffffffffffffffffffffffffff16906020019092919080359060200190929190505050610999565b005b34801561021657600080fd5b5061021f610bb3565b604051808273ffffffffffffffffffffffffffffffffffffffff16815260200191505060405180910390f35b34801561025757600080fd5b50610260610bd9565b604051808273ffffffffffffffffffffffffffffffffffffffff16815260200191505060405180910390f35b34801561029857600080fd5b506102e5600480360360408110156102af57600080fd5b81019080803573ffffffffffffffffffffffffffffffffffffffff16906020019092919080359060200190929190505050610bff565b005b3480156102f357600080fd5b506103406004803603604081101561030a57600080fd5b81019080803573ffffffffffffffffffffffffffffffffffffffff16906020019092919080359060200190929190505050610e18565b005b34801561034e57600080fd5b5061039b6004803603604081101561036557600080fd5b81019080803573ffffffffffffffffffffffffffffffffffffffff16906020019092919080359060200190929190505050610f85565b005b3480156103a957600080fd5b506103b261119f565b6040518082815260200191505060405180910390f35b6000803390506000848460208110156103e057600080fd5b81019080803560ff169060200190929190505050905088600360006101000a81548173ffffffffffffffffffffffffffffffffffffffff021916908373ffffffffffffffffffffffffffffffffffffffff16021790555087600160006101000a81548173ffffffffffffffffffffffffffffffffffffffff021916908373ffffffffffffffffffffffffffffffffffffffff160217905550866002819055506000600381111561048c57fe5b81600381111561049857fe5b141561054b578173ffffffffffffffffffffffffffffffffffffffff166370a08231306040518263ffffffff1660e01b8152600401808273ffffffffffffffffffffffffffffffffffffffff16815260200191505060206040518083038186803b15801561050557600080fd5b505afa158015610519573d6000803e3d6000fd5b505050506040513d602081101561052f57600080fd5b8101908080519060200190929190505050600081905550610964565b6002600381111561055857fe5b81600381111561056457fe5b1415610642578173ffffffffffffffffffffffffffffffffffffffff16632e1a7d4d886040518263ffffffff1660e01b815260040180828152602001915050600060405180830381600087803b1580156105bd57600080fd5b505af11580156105d1573d6000803e3d6000fd5b50505050476000819055508173ffffffffffffffffffffffffffffffffffffffff1663d0e30db0886040518263ffffffff1660e01b81526004016000604051808303818588803b15801561062457600080fd5b505af1158015610638573d6000803e3d6000fd5b5050505050610963565b6001600381111561064f57fe5b81600381111561065b57fe5b141561066657610962565b60038081111561067257fe5b81600381111561067e57fe5b1415610961576000806040516020018082600381111561069a57fe5b815260200191505060405160208183030381529060405290508273ffffffffffffffffffffffffffffffffffffffff1663095ea7b38460028b028673ffffffffffffffffffffffffffffffffffffffff1663dd62ed3e30896040518363ffffffff1660e01b8152600401808373ffffffffffffffffffffffffffffffffffffffff1681526020018273ffffffffffffffffffffffffffffffffffffffff1681526020019250505060206040518083038186803b15801561075957600080fd5b505afa15801561076d573d6000803e3d6000fd5b505050506040513d602081101561078357600080fd5b8101908080519060200190929190505050016040518363ffffffff1660e01b8152600401808373ffffffffffffffffffffffffffffffffffffffff16815260200182815260200192505050602060405180830381600087803b1580156107e857600080fd5b505af11580156107fc573d6000803e3d6000fd5b505050506040513d602081101561081257600080fd5b8101908080519060200190929190505050508273ffffffffffffffffffffffffffffffffffffffff16635cffe9de308560028c02856040518563ffffffff1660e01b8152600401808573ffffffffffffffffffffffffffffffffffffffff1681526020018473ffffffffffffffffffffffffffffffffffffffff16815260200183815260200180602001828103825283818151815260200191508051906020019080838360005b838110156108d45780820151818401526020810190506108b9565b50505050905090810190601f1680156109015780820380516001836020036101000a031916815260200191505b5095505050505050602060405180830381600087803b15801561092357600080fd5b505af1158015610937573d6000803e3d6000fd5b505050506040513d602081101561094d57600080fd5b810190808051906020019092919050505050505b5b5b5b7f439148f0bbc682ca079e46d6e2c2f0c1e3b820f1a291b069d8882abf8cf18dd9925050509695505050505050565b60025481565b60006002604051602001808260038111156109b057fe5b815260200191505060405160208183030381529060405290508273ffffffffffffffffffffffffffffffffffffffff1663095ea7b384846040518363ffffffff1660e01b8152600401808373ffffffffffffffffffffffffffffffffffffffff16815260200182815260200192505050602060405180830381600087803b158015610a3a57600080fd5b505af1158015610a4e573d6000803e3d6000fd5b505050506040513d6020811015610a6457600080fd5b8101908080519060200190929190505050508273ffffffffffffffffffffffffffffffffffffffff16635cffe9de308585856040518563ffffffff1660e01b8152600401808573ffffffffffffffffffffffffffffffffffffffff1681526020018473ffffffffffffffffffffffffffffffffffffffff16815260200183815260200180602001828103825283818151815260200191508051906020019080838360005b83811015610b23578082015181840152602081019050610b08565b50505050905090810190601f168015610b505780820380516001836020036101000a031916815260200191505b5095505050505050602060405180830381600087803b158015610b7257600080fd5b505af1158015610b86573d6000803e3d6000fd5b505050506040513d6020811015610b9c57600080fd5b810190808051906020019092919050505050505050565b600160009054906101000a900473ffffffffffffffffffffffffffffffffffffffff1681565b600360009054906101000a900473ffffffffffffffffffffffffffffffffffffffff1681565b60008060405160200180826003811115610c1557fe5b815260200191505060405160208183030381529060405290508273ffffffffffffffffffffffffffffffffffffffff1663095ea7b384846040518363ffffffff1660e01b8152600401808373ffffffffffffffffffffffffffffffffffffffff16815260200182815260200192505050602060405180830381600087803b158015610c9f57600080fd5b505af1158015610cb3573d6000803e3d6000fd5b505050506040513d6020811015610cc957600080fd5b8101908080519060200190929190505050508273ffffffffffffffffffffffffffffffffffffffff16635cffe9de308585856040518563ffffffff1660e01b8152600401808573ffffffffffffffffffffffffffffffffffffffff1681526020018473ffffffffffffffffffffffffffffffffffffffff16815260200183815260200180602001828103825283818151815260200191508051906020019080838360005b83811015610d88578082015181840152602081019050610d6d565b50505050905090810190601f168015610db55780820380516001836020036101000a031916815260200191505b5095505050505050602060405180830381600087803b158015610dd757600080fd5b505af1158015610deb573d6000803e3d6000fd5b505050506040513d6020811015610e0157600080fd5b810190808051906020019092919050505050505050565b6000600160405160200180826003811115610e2f57fe5b815260200191505060405160208183030381529060405290508273ffffffffffffffffffffffffffffffffffffffff16635cffe9de308585856040518563ffffffff1660e01b8152600401808573ffffffffffffffffffffffffffffffffffffffff1681526020018473ffffffffffffffffffffffffffffffffffffffff16815260200183815260200180602001828103825283818151815260200191508051906020019080838360005b83811015610ef5578082015181840152602081019050610eda565b50505050905090810190601f168015610f225780820380516001836020036101000a031916815260200191505b5095505050505050602060405180830381600087803b158015610f4457600080fd5b505af1158015610f58573d6000803e3d6000fd5b505050506040513d6020811015610f6e57600080fd5b810190808051906020019092919050505050505050565b6000600360405160200180826003811115610f9c57fe5b815260200191505060405160208183030381529060405290508273ffffffffffffffffffffffffffffffffffffffff1663095ea7b384846040518363ffffffff1660e01b8152600401808373ffffffffffffffffffffffffffffffffffffffff16815260200182815260200192505050602060405180830381600087803b15801561102657600080fd5b505af115801561103a573d6000803e3d6000fd5b505050506040513d602081101561105057600080fd5b8101908080519060200190929190505050508273ffffffffffffffffffffffffffffffffffffffff16635cffe9de308585856040518563ffffffff1660e01b8152600401808573ffffffffffffffffffffffffffffffffffffffff1681526020018473ffffffffffffffffffffffffffffffffffffffff16815260200183815260200180602001828103825283818151815260200191508051906020019080838360005b8381101561110f5780820151818401526020810190506110f4565b50505050905090810190601f16801561113c5780820380516001836020036101000a031916815260200191505b5095505050505050602060405180830381600087803b15801561115e57600080fd5b505af1158015611172573d6000803e3d6000fd5b505050506040513d602081101561118857600080fd5b810190808051906020019092919050505050505050565b6000548156fea26469706673582212203c771414a7569ce31e2b032b259cad4dc1280bfb3c5bf7b373174cf31fc2ec1364736f6c63430007060033",
  "immutableReferences": {},
  "source": "// SPDX-License-Identifier: GPL-3.0-or-later\npragma solidity 0.7.6;\n\nimport \"../interfaces/IWETH10.sol\";\nimport \"../interfaces/IERC3156FlashBorrower.sol\";\n\n\ncontract TestFlashLender is IERC3156FlashBorrower {\n    enum Action {NORMAL, STEAL, WITHDRAW, REENTER}\n\n    uint256 public flashBalance;\n    address public flashToken;\n    uint256 public flashValue;\n    address public flashSender;\n\n    receive() external payable {}\n\n    function onFlashLoan(address sender, address token, uint256 value, uint256, bytes calldata data) external override returns(bytes32) {\n        address lender = msg.sender;\n        (Action action) = abi.decode(data, (Action)); // Use this to unpack arbitrary data\n        flashSender = sender;\n        flashToken = token;\n        flashValue = value;\n        if (action == Action.NORMAL) {\n            flashBalance = IWETH10(lender).balanceOf(address(this));\n        } else if (action == Action.WITHDRAW) {\n            IWETH10(lender).withdraw(value);\n            flashBalance = address(this).balance;\n            IWETH10(lender).deposit{ value: value }();\n        } else if (action == Action.STEAL) {\n            // Do nothing\n        } else if (action == Action.REENTER) {\n            bytes memory newData = abi.encode(Action.NORMAL);\n            IWETH10(lender).approve(lender, IWETH10(lender).allowance(address(this), lender) + value * 2);\n            IWETH10(lender).flashLoan(this, address(lender), value * 2, newData);\n        }\n        return keccak256(\"ERC3156FlashBorrower.onFlashLoan\");\n    }\n\n    function flashLoan(address lender, uint256 value) public {\n        // Use this to pack arbitrary data to `onFlashLoan`\n        bytes memory data = abi.encode(Action.NORMAL);\n        IWETH10(lender).approve(lender, value);\n        IWETH10(lender).flashLoan(this, address(lender), value, data);\n    }\n\n    function flashLoanAndWithdraw(address lender, uint256 value) public {\n        // Use this to pack arbitrary data to `onFlashLoan`\n        bytes memory data = abi.encode(Action.WITHDRAW);\n        IWETH10(lender).approve(lender, value);\n        IWETH10(lender).flashLoan(this, address(lender), value, data);\n    }\n\n    function flashLoanAndSteal(address lender, uint256 value) public {\n        // Use this to pack arbitrary data to `onFlashLoan`\n        bytes memory data = abi.encode(Action.STEAL);\n        IWETH10(lender).flashLoan(this, address(lender), value, data);\n    }\n\n    function flashLoanAndReenter(address lender, uint256 value) public {\n        // Use this to pack arbitrary data to `onFlashLoan`\n        bytes memory data = abi.encode(Action.REENTER);\n        IWETH10(lender).approve(lender, value);\n        IWETH10(lender).flashLoan(this, address(lender), value, data);\n    }\n}\n",
  "sourcePath": "/Volumes/Work/Code/Eth/data-processor/contracts/contracts/WETH10/tests/TestFlashMinter.sol",
  "compiler": {
    "name": "solc",
    "version": "0.7.6+commit.7338295f.Emscripten.clang"
  },
  "schemaVersion": "3.4.1",
  "updatedAt": "2021-07-19T13:37:30.701Z",
  "devdoc": {
    "kind": "dev",
    "methods": {},
    "version": 1
  },
  "userdoc": {
    "kind": "user",
    "methods": {},
    "version": 1
  }
}