{
  "contractName": "WethConverter",
  "abi": [
    {
      "stateMutability": "payable",
      "type": "receive",
      "payable": true
    },
    {
      "inputs": [
        {
          "internalType": "address",
          "name": "account",
          "type": "address"
        },
        {
          "internalType": "uint256",
          "name": "value",
          "type": "uint256"
        }
      ],
      "name": "weth9ToWeth10",
      "outputs": [],
      "stateMutability": "payable",
      "type": "function",
      "payable": true
    },
    {
      "inputs": [
        {
          "internalType": "address",
          "name": "account",
          "type": "address"
        },
        {
          "internalType": "uint256",
          "name": "value",
          "type": "uint256"
        }
      ],
      "name": "weth10ToWeth9",
      "outputs": [],
      "stateMutability": "payable",
      "type": "function",
      "payable": true
    }
  ],
  "bytecode": "0x608060405234801561001057600080fd5b50610502806100206000396000f3fe60806040526004361061002d5760003560e01c80633a3ce88f14610039578063e0e240111461008757610034565b3661003457005b600080fd5b6100856004803603604081101561004f57600080fd5b81019080803573ffffffffffffffffffffffffffffffffffffffff169060200190929190803590602001909291905050506100d5565b005b6100d36004803603604081101561009d57600080fd5b81019080803573ffffffffffffffffffffffffffffffffffffffff169060200190929190803590602001909291905050506102cf565b005b73c02aaa39b223fe8d0a0e5c4f27ead9083c756cc273ffffffffffffffffffffffffffffffffffffffff166323b872dd8330846040518463ffffffff1660e01b8152600401808473ffffffffffffffffffffffffffffffffffffffff1681526020018373ffffffffffffffffffffffffffffffffffffffff1681526020018281526020019350505050602060405180830381600087803b15801561017857600080fd5b505af115801561018c573d6000803e3d6000fd5b505050506040513d60208110156101a257600080fd5b81019080805190602001909291905050505073c02aaa39b223fe8d0a0e5c4f27ead9083c756cc273ffffffffffffffffffffffffffffffffffffffff16632e1a7d4d826040518263ffffffff1660e01b815260040180828152602001915050600060405180830381600087803b15801561021b57600080fd5b505af115801561022f573d6000803e3d6000fd5b5050505073f4bb2e28688e89fcce3c0580d37d36a7672e8a9f73ffffffffffffffffffffffffffffffffffffffff1663b760faf9348301846040518363ffffffff1660e01b8152600401808273ffffffffffffffffffffffffffffffffffffffff1681526020019150506000604051808303818588803b1580156102b257600080fd5b505af11580156102c6573d6000803e3d6000fd5b50505050505050565b73f4bb2e28688e89fcce3c0580d37d36a7672e8a9f73ffffffffffffffffffffffffffffffffffffffff16639555a9428330846040518463ffffffff1660e01b8152600401808473ffffffffffffffffffffffffffffffffffffffff1681526020018373ffffffffffffffffffffffffffffffffffffffff1681526020018281526020019350505050600060405180830381600087803b15801561037257600080fd5b505af1158015610386573d6000803e3d6000fd5b505050506000348201905073c02aaa39b223fe8d0a0e5c4f27ead9083c756cc273ffffffffffffffffffffffffffffffffffffffff1663d0e30db0826040518263ffffffff1660e01b81526004016000604051808303818588803b1580156103ed57600080fd5b505af1158015610401573d6000803e3d6000fd5b505050505073c02aaa39b223fe8d0a0e5c4f27ead9083c756cc273ffffffffffffffffffffffffffffffffffffffff1663a9059cbb84836040518363ffffffff1660e01b8152600401808373ffffffffffffffffffffffffffffffffffffffff16815260200182815260200192505050602060405180830381600087803b15801561048b57600080fd5b505af115801561049f573d6000803e3d6000fd5b505050506040513d60208110156104b557600080fd5b81019080805190602001909291905050505050505056fea2646970667358221220871c34c59859e297ca181c34299bcb67eda96516e8e96922c88043da00985c0c64736f6c63430007060033",
  "immutableReferences": {},
  "source": "// SPDX-License-Identifier: GPL-3.0-or-later\n// Copyright (C) 2015, 2016, 2017 Dapphub\n// Adapted by Ethereum Community 2021\npragma solidity 0.7.6;\n\ninterface WETH9Like {\n    function withdraw(uint) external;\n    function deposit() external payable;\n    function transfer(address, uint) external returns (bool);\n    function transferFrom(address, address, uint) external returns (bool);\n}\n\ninterface WETH10Like {\n    function depositTo(address) external payable;\n    function withdrawFrom(address, address, uint256) external;\n}\n\ncontract WethConverter {\n    WETH9Like constant private weth9 = WETH9Like(0xC02aaA39b223FE8D0A0e5C4F27eAD9083C756Cc2); // ETH wrapper contract v9\n    WETH10Like constant private weth10 = WETH10Like(0xf4BB2e28688e89fCcE3c0580D37d36A7672E8A9F); // ETH wrapper contract v10\n    \n    receive() external payable {}\n\n    function weth9ToWeth10(address account, uint256 value) external payable {\n        weth9.transferFrom(account, address(this), value);\n        weth9.withdraw(value);\n        weth10.depositTo{value: value + msg.value}(account);\n    }\n\n    function weth10ToWeth9(address account, uint256 value) external payable {\n        weth10.withdrawFrom(account, address(this), value);\n        uint256 combined = value + msg.value;\n        weth9.deposit{value: combined}();\n        weth9.transfer(account, combined);\n    }\n}\n",
  "sourcePath": "/Volumes/Work/Code/Eth/data-processor/contracts/contracts/WETH10/WethConverter.sol",
  "compiler": {
    "name": "solc",
    "version": "0.7.6+commit.7338295f.Emscripten.clang"
  },
  "schemaVersion": "3.4.1",
  "updatedAt": "2021-07-19T13:45:39.998Z",
  "networkType": "ethereum",
  "devdoc": {
    "kind": "dev",
    "methods": {},
    "version": 1
  },
  "userdoc": {
    "kind": "user",
    "methods": {},
    "version": 1
  }
}